:020000040800F2
:10000000200800207D020008892A0008092900082C
:10001000852A0008C1040008F12D00080000000036
:10002000000000000000000000000000FD2A0008A1
:10003000D504000800000000F92A0008552B00082C
:10004000970200089702000897020008970200082C
:10005000970200089702000897020008970200081C
:10006000D9040008970200089702000897020008C8
:1000700097020008970200089702000897020008FC
:1000800097020008970200089702000897020008EC
:10009000C5040008970200089702000897020008AC
:1000A00097020008970200089702000897020008CC
:1000B00097020008970200089702000897020008BC
:1000C00097020008970200089702000897020008AC
:1000D000970200089702000897020008970200089C
:1000E000970200089702000897020008970200088C
:1000F000970200089702000897020008970200087C
:10010000970200089702000897020008970200086B
:1001100097020008970200083D2C0008970200088B
:10012000970200089702000897020008970200084B
:10013000970200089702000897020008970200083B
:10014000970200089702000897020008970200082B
:10015000970200089702000897020008970200081B
:10016000970200089702000897020008970200080B
:10017000970200089702000897020008000000009C
:1001800097020008970200089702000897020008EB
:1001900097020008970200089702000897020008DB
:1001A00000000000000000009702000800F002F8C4
:1001B00000F054F814A696E8000CB244B344DA45B3
:1001C00001D100F04BF8BAE80F000FA696E8300016
:1001D000A5EB040504EB0607AAEB0704A7F101074A
:1001E0004FEA15154FEA3414A4F10104AC4201D3CF
:1001F00000F034F813F0010F18BFFB1A43F00103AD
:1002000000F001F8DBE71847743600009436000070
:10021000103A24BF78C878C1FAD8520724BF30C832
:1002200030C144BF04680C60704700007047000094
:100230000023002400250026103A28BF78C1FBD8EF
:10024000520728BF30C148BF0B6070471FB503F08D
:10025000EFFA00F0D5F81FBD10B510BD00F0FAF8A8
:100260001146FFF7F3FF03F021F900F018F903B48A
:10027000FFF7F2FF03BC00F01BF9000009488047BC
:1002800009480047FEE7FEE7FEE7FEE7FEE7FEE778
:10029000FEE7FEE7FEE7FEE704480549054A064B90
:1002A00070470000292C0008AD0100082002002042
:1002B00020080020200400202004002053EA020C23
:1002C00000F069802DE9F04B4FF00006002B1FBFB6
:1002D000B3FA83F503FA05F424FA05F65E4012BF7B
:1002E0001643B2FA82F502FA05F4C5F120051EBFE5
:1002F00022FA05FC44EA0C04203556EA044C4FEA85
:10030000144418BF641C4FF000084FF000099042DD
:1003100071EB030C39D3002919BFB1FA81F701FA47
:1003200007F6B0FA80F700FA07F6C7F120071EBFFC
:1003300020FA07FC46EA0C062037B6FBF4FCA7EBD4
:100340000507103F07F01F0BCBF120062CFA06F62D
:100350000CFA0BFB44BFB3460026202FA4BF5E4619
:100360004FF0000B5BEA060C08BF4FF0010B19EBD6
:100370000B0948EB0608ABFB027C06FB02CC0BFB2F
:1003800003CCC01B71EB0C01C1E70B460246414692
:100390004846BDE8F08B13B5084318BF4FF0FF3057
:1003A0000146AFF30080BDE81C4070474FF00002EB
:1003B00000B5134694469646203922BFA0E80C505B
:1003C000A0E80C50B1F12001BFF4F7AF090728BF36
:1003D000A0E80C5048BF0CC05DF804EB890028BFB2
:1003E00040F8042B08BF704748BF20F8022B11F0DB
:1003F000804F18BF00F8012B704770477047704757
:1004000008487CB57844009007487844009C05462D
:10041000019004E02046016808448047241DAC4256
:10042000F8D17CBD943400009234000010B500F087
:1004300009F8006810BD10B5044600F003F8046028
:1004400010BD000000487047500000200048704771
:10045000500000207546FFF7F9FFAE4605006946DB
:10046000534620F00700854618B020B5FFF714FF6B
:10047000BDE820404FF000064FF000074FF00008A5
:100480004FF0000BAC46ACE8C009ACE8C009ACE8E2
:10049000C009ACE8C00921F007018D46704710B5CE
:1004A0000446AFF300802046BDE81040FFF7DFBEF2
:1004B00001491820ABBEFEE726000200704700008D
:1004C000FFE7FEE780B540F27C10C2F2000000F0CA
:1004D000C1FA80BD7047000080B5042000F0E0FE46
:1004E00080BD000072B6FFE7FEE7000084B0029016
:1004F0000191029890F820008DF803009DF8030008
:10050000012805D0FFE79DF8030002280AD1FFE784
:10051000019A0298016848691043486100208DF8EB
:100520000F0008E00299486A40F4802048620120E8
:100530008DF80F00FFE79DF80F0004B07047000032
:1005400088B00690059104920393069890F82000D5
:100550008DF807000698006880680090059880680C
:1005600008B9FFE700E0FFE79DF80700012806D083
:10057000FFE79DF80700022840F08080FFE79DF824
:100580000300400700280CD4FFE79DF80300000794
:10059000002806D4FFE79DF80300C006002864D5B4
:1005A000FFE70098C0F301600290029901208840A3
:1005B000039908600598806868B9FFE705980168A5
:1005C000C06840EA415006990968029A01EB02119D
:1005D000C1F880010EE005994A688868C96840EA58
:1005E000C200084306990968029A01EB0211C1F89A
:1005F0008001FFE70598006906990968029A01EBF6
:100600000211C1F884010598007D01280CD1FFE793
:1006100006980068029900EB0111D1F8840140F4BA
:100620008070C1F88401FFE7049840680699096862
:10063000029A01EB0211C1F88C0104980068069936
:100640000968029A01EB0211C1F888010698006856
:10065000029900EB0111D1F8800140F00100C1F8CE
:10066000800100208DF81F0011E00699486A40F4CF
:100670000010486201208DF81F0008E00699486AC2
:1006800040F48020486201208DF81F00FFE79DF8AC
:100690001F0008B07047000086B0049003910498D2
:1006A00090F820008DF803009DF80300012806D083
:1006B000FFE79DF80300022840F0B080FFE746F214
:1006C0000040C4F2000001900199D1F8000240F00E
:1006D0000100C1F800020199D1F8000220F47C5019
:1006E000C1F800020398426A0199D1F8000240EA79
:1006F0000220C1F800020398406900F01F010120A8
:1007000088400290029A0199D1F81C029043C1F8E6
:100710001C020398C069F0B9FFE7029A0199D1F869
:100720000C029043C1F80C02039A9088D168526978
:1007300040EA0140019901EBC201C1F84002039A6D
:1007400010889168526940EA0140019901EBC201A9
:10075000C1F84402FFE70398C06901281ED1FFE7F2
:10076000029A0199D1F80C021043C1F80C02039AC5
:1007700090881168526940EA0140019901EBC20179
:10078000C1F84002039A90899168526940EA014099
:10079000019901EBC201C1F84402FFE703988069A7
:1007A00040B9FFE7029A0199D1F804029043C1F8D9
:1007B000040207E0029A0199D1F804021043C1F83B
:1007C0000402FFE70398006940B9FFE7029A019924
:1007D000D1F814029043C1F8140207E0029A01997B
:1007E000D1F814021043C1F81402FFE70398006A1D
:1007F000012808D1FFE7029A0199D1F81C021043A1
:10080000C1F81C02FFE70199D1F8000220F00100B5
:10081000C1F8000200208DF8170008E00499486A2A
:1008200040F48020486201208DF81700FFE79DF812
:10083000170006B07047000081B0009001B070470B
:1008400086B00490039102920193049890F82000DE
:100850008DF803009DF80300012806D0FFE79DF8FE
:100860000300022840F0E880FFE7039880B9FFE723
:1008700004980068C068800748B9FFE70499486A8F
:1008800040F40010486201208DF81700DDE00FE011
:10089000049800680069800748B9FFE70499486A2E
:1008A00040F40010486201208DF81700CDE0FFE70A
:1008B00004980068039900EB0110D0F8B00100F033
:1008C0000400029988600298806858B9FFE704988C
:1008D0000068039900EB0110D0F8B001400D0299B7
:1008E00008600AE004980068039900EB0110D0F852
:1008F000B001C00802994860FFE7049800680399B6
:1009000000EB0110D0F8B00100F002000299C860BD
:1009100004980068039900EB0110D0F8B40100F0CE
:100920000F00082804D3FFE70299082008610BE0B4
:1009300004980068039900EB0110D0F8B40100F0AE
:100940000F0002990861FFE704980068039900EB23
:100950000110D0F8B40180B2000A029988610498AD
:100960000068039900EB0110D0F8B401000C029963
:10097000486104980068039900EB0110D0F8B801B1
:100980000199087004980068039900EB0110D0F8F1
:10099000B801000A0199487004980068039900EBB7
:1009A0000110D0F8B801000C019988700498006813
:1009B000039900EB0110D0F8B801000E0199C8703E
:1009C00004980068039900EB0110D0F8BC0101996C
:1009D000087104980068039900EB0110D0F8BC017D
:1009E000000A0199487104980068039900EB01100E
:1009F000D0F8BC01000C0199887104980068039933
:100A000000EB0110D0F8BC01000E0199C8710398E9
:100A100038B9FFE704980168C86840F02000C86052
:100A200006E004980168086940F020000861FFE7CB
:100A300000208DF8170008E00499486A40F48020EF
:100A4000486201208DF81700FFE79DF8170006B0F7
:100A50007047000080B58AB009900020089009987E
:100A600000684069079009980068406806900998F6
:100A700000688068059009980068C068049009982B
:100A800000680069039009980068806902909DF8E9
:100A90001C00C007002800F09480FFE79DF81400B8
:100AA000C00758B3FFE709980168012088609DF8E6
:100AB00014008007002804D5FFE7099800F092FB96
:100AC0001BE09DF814004007002805D5FFE70898B3
:100AD00040F4006008900FE09DF814000007002823
:100AE00005D5FFE7089840F48050089003E0099886
:100AF00000F074FBFFE7FFE7FFE7FFE79DF8150055
:100B0000C00760B3FFE7099801684FF48070886000
:100B10009DF815008007002804D5FFE7099800F02C
:100B200069FB1BE09DF815004007002805D5FFE78D
:100B3000089840F4005008900FE09DF81500000759
:100B4000002805D5FFE7089840F48040089003E0AE
:100B5000099800F04BFBFFE7FFE7FFE7FFE79DF891
:100B60001600C00760B3FFE7099801684FF48030B2
:100B700088609DF816008007002804D5FFE70998D3
:100B800000F040FB1BE09DF816004007002805D54B
:100B9000FFE7089840F4004008900FE09DF8160029
:100BA0000007002805D5FFE7089840F4803008903A
:100BB00003E0099800F022FBFFE7FFE7FFE7FFE70C
:100BC000FFE79DF81C000007002810D5FFE79DF8FF
:100BD0001000C006002809D5FFE7089840F400700F
:100BE0000890099801681020C860FFE7FFE79DF8AA
:100BF0001C00400700280FD5FFE79DF810000007F4
:100C0000002808D5FFE7099801680820C8600998FE
:100C100000F05CFAFFE7FFE79DF81C008007002862
:100C20000BD5FFE709980068C068800720B1FFE78F
:100C3000099800F04FFAFFE7FFE79DF81C00400617
:100C4000002810D5FFE79DF80C00C006002809D544
:100C5000FFE7089840F48060089009980168102028
:100C60000861FFE7FFE79DF81C00800600280FD50C
:100C7000FFE79DF80C000007002808D5FFE709985A
:100C8000016808200861099800F056FAFFE7FFE7BD
:100C90009DF81C00C00600280BD5FFE709980068E6
:100CA0000069800720B1FFE7099800F049FAFFE7E3
:100CB000FFE79DF81E00800700280FD5FFE79DF88D
:100CC0001800C006002808D5FFE709980168102021
:100CD0004860099800F038FAFFE7FFE79DF81E002A
:100CE000C00778B1FFE79DF818000007002808D575
:100CF000FFE70998016808204860099800F086FA23
:100D0000FFE7FFE79DF81D000006002840F18D80F9
:100D1000FFE79DF818004007002840F18180FFE7B9
:100D20009DF81D00C00750B1FFE79DF80800C007FF
:100D300028B1FFE7089840F001000890FFE79DF810
:100D40001D00800700280BD5FFE79DF808008007ED
:100D5000002805D5FFE7089840F002000890FFE75B
:100D60009DF81D00400700280BD5FFE79DF80800FF
:100D70004007002805D5FFE7089840F004000890D8
:100D8000FFE79DF81D000007002848D5FFE79DF804
:100D9000080010F0700F42D0FFE7029800F07000DA
:100DA00001460191102814D0FFE70198202815D0A2
:100DB000FFE70198302816D0FFE70198402817D0A8
:100DC000FFE70198502818D0FFE70198602819D054
:100DD0001DE0089840F00800089019E0089840F0DD
:100DE0001000089014E0089840F0200008900FE0F0
:100DF000089840F0400008900AE0089840F0800011
:100E0000089005E0089840F48070089000E0FFE743
:100E100009980168886920F070008861FFE7FFE7A2
:100E20000998016804204860FFE7089848B1FFE787
:100E3000089A0999486A104348620998FFF7FCFC30
:100E4000FFE70AB080BD000080B584B00290029830
:100E500020B9FFE701208DF80F00E0E0029890F83C
:100E6000200020B9FFE7029800F0DEF8FFE70298C3
:100E70000168086840F00100086000F03DFC019046
:100E8000FFE7029800684068C007A8B9FFE700F0D4
:100E900033FC0199401A0B280DD3FFE70299486AE9
:100EA00040F4003048620299052081F820000120BA
:100EB0008DF80F00B3E0E4E702980168086820F0BD
:100EC0000200086000F018FC0190FFE7029800683B
:100ED00040688007002815D5FFE700F00DFC019958
:100EE000401A0B280DD3FFE70299486A40F40030FE
:100EF00048620299052081F8200001208DF80F003A
:100F00008DE0E3E70298007E012807D1FFE7029811
:100F10000168086840F08000086006E002980168F7
:100F2000086820F080000860FFE70298407E0128F2
:100F300007D1FFE702980168086840F040000860A8
:100F400006E002980168086820F040000860FFE7AA
:100F50000298807E012807D1FFE70298016808689F
:100F600040F02000086006E002980168086820F060
:100F700020000860FFE70298C07E012807D1FFE744
:100F800002980168086820F01000086006E00298E6
:100F90000168086840F010000860FFE70298007FD1
:100FA000012807D1FFE702980168086840F00800AF
:100FB000086006E002980168086820F008000860F0
:100FC000FFE70298407F012807D1FFE702980168F8
:100FD000086840F00400086006E0029801680868AC
:100FE00020F004000860FFE7029B19685A689868BF
:100FF000D3F80CC040EA0C00D3F810C040EA0C0053
:101000005B691843013A1043C861029900204862A5
:10101000029A012182F820108DF80F00FFE79DF859
:101020000F0004B080BD000080B58AB00990002098
:10103000089007900690059004900998006846F281
:101040000041C4F2000188423DD1FFE7FFE70020E4
:10105000039043F64000C4F20200016841F00071C1
:101060000160006800F0007003900398FFE7FFE75D
:101070000020029043F63000C4F20200016841F003
:1010800008010160006800F0080002900298FFE784
:101090000320049002210591002100910691079000
:1010A0000920089040F60040C4F2020004A900F0B4
:1010B00013F9009A14200190114600F0B5FB019835
:1010C00000F0A8FBFFE70AB080BD000081B00090EF
:1010D00001B0704780B582B001900198006846F277
:1010E0000041C4F20001884223D1FFE740F27C10A6
:1010F000C2F2000040F2F412C2F20002009240F28A
:10110000EC13C2F200030021FFF79AFB009800687D
:1011100040F2012188420BD1FFE740F2B000C2F259
:10112000000040F2EC11C2F2000101F0BFFEFFE747
:10113000FFE702B080BD000081B0009001B07047B1
:1011400081B0009001B0704781B0009001B070474D
:1011500080B584B00290029890F8200001282FD129
:10116000FFE70299022081F82000029801680868D0
:1011700020F00100086000F0BFFA0190FFE702983C
:1011800000684068C007A8B1FFE700F0B5FA019910
:10119000401A0B280DD3FFE70299486A40F400304B
:1011A00048620299052081F8200001208DF80F0087
:1011B0000FE0E4E70299002048628DF80F0008E094
:1011C0000299486A40F40020486201208DF80F001F
:1011D000FFE79DF80F0004B080BD000081B00090D3
:1011E00001B0704781B0009001B0704781B00090AD
:1011F00001B0704781B0009001B0704781B000909D
:1012000001B0704781B0009001B0704781B000908C
:1012100001B0704780B584B0039000F06DFA029081
:10122000039801900198013048B1FFE740F248006F
:10123000C2F200000178019808440190FFE7FFE73F
:1012400000F05AFA0299401A0199884201D2FFE748
:10125000F6E704B080BD000080B582B0ADF80600AE
:10126000BDF80600042818D1FFE71420FFF7D2FFCD
:1012700040F20040C4F20200042100F025FA0128E7
:101280000AD1FFE740F22C01C2F200010878B0FA5F
:1012900080F040090870FFE7FFE702B080BD000062
:1012A00080B582B0ADF8060043F61440C4F20100E8
:1012B0000068BDF8061008420CD0FFE7BDF8060034
:1012C00043F61441C4F201010860BDF80600FFF7BF
:1012D000C3FFFFE702B080BD90B00F900E910020D9
:1012E0000C900B900A900D90FFE70D980F2800F2DC
:1012F000E881FFE70D99012088400C900E98006866
:101300000C9908400B900B980C99884240F0D481BE
:10131000FFE70E98406800F00300012807D0FFE7C0
:101320000E98406800F0030002282FD1FFE70F98C5
:1013300080680A900D984100032000FA01F10A9894
:1013400088430A900E98C0680D99490000FA01F18F
:101350000A9808430A900A980F9988600F98406885
:101360000A900D99012000FA01F10A9888430A9029
:101370000E984068C0F300100D9900FA01F10A9828
:1013800008430A900A980F994860FFE70E98406852
:1013900000F00300032818D0FFE70F98C0680A90F8
:1013A0000D984100032000FA01F10A9888430A9041
:1013B0000E9880680D99490000FA01F10A980843D7
:1013C0000A900A980F99C860FFE70E98406800F0ED
:1013D0000300022826D1FFE70F980D996FF0030252
:1013E00002EA51010844006A0A900D9800F00700D3
:1013F00081000F2000FA01F10A9888430A900E98A4
:1014000000690D9901F00701890000FA01F10A98BD
:1014100008430A900A980F990D9B02EA530211445F
:101420000862FFE70F9800680A900D9841000320BA
:1014300000FA01F10A9888430A900E98406800F07B
:1014400003000D99490000FA01F10A9808430A9037
:101450000A980F9908600E9880798007002800F09C
:101460002A81FFE7FFE70020099043F64400C4F219
:101470000200016841F480410160006800F480408E
:1014800009900998FFE70D9820F0030043F6080142
:10149000C4F2010140580A900D9800F00300810049
:1014A0000F2000FA01F10A9888430A900F98002152
:1014B000C4F20201884203D1FFE7002008907AE0DD
:1014C0000F9840F20041C4F20201884203D1FFE7C5
:1014D000012007906CE00F9840F60001C4F2020171
:1014E000884203D1FFE7022006905EE00F9840F6A5
:1014F0000041C4F20201884203D1FFE703200590B6
:1015000050E00F9841F20001C4F20201884203D179
:10151000FFE70420049042E00F9841F20041C4F23A
:101520000201884203D1FFE70520039034E00F98C1
:1015300041F60001C4F20201884203D1FFE7062010
:10154000029026E00F9841F60041C4F20201884261
:1015500003D1FFE70720019018E00F9842F2000145
:10156000C4F20201884203D1FFE7082000900AE09C
:101570000F9942F20042C4F202020A20914208BFCF
:1015800009200090FFE700980190FFE70198029082
:10159000FFE702980390FFE703980490FFE70498A1
:1015A0000590FFE705980690FFE706980790FFE78C
:1015B00007980890FFE70898C0B20D9901F0030161
:1015C000890000FA01F10A9808430A900A980D99D7
:1015D00021F0030143F60802C4F20102885043F6E9
:1015E0000840C4F2010000680A900B990A988843E9
:1015F0000A900E988079C006002805D5FFE70B9960
:101600000A9808430A90FFE70A9843F60841C4F293
:101610000101086043F60C40C4F2010000680A9022
:101620000B990A9888430A900E98807980060028C2
:1016300005D5FFE70B990A9808430A90FFE70A9837
:1016400043F60C41C4F20101086043F60440C4F2C1
:10165000010000680A900B990A9888430A900E9836
:1016600080798007002805D5FFE70B990A98084381
:101670000A90FFE70A9843F60441C4F201010860AA
:1016800043F60040C4F2010000680A900B990A98E2
:1016900088430A900E988079C00728B1FFE70B991C
:1016A0000A9808430A90FFE70A9843F60041C4F2FB
:1016B00001010860FFE7FFE7FFE70D9801300D909B
:1016C00013E610B07047000082B00190ADF8021030
:1016D00001980069BDF80210084204D0FFE701201C
:1016E0008DF8010003E000208DF80100FFE79DF870
:1016F000010002B07047000040F21820C2F2000062
:101700000068704740F24800C2F20000027840F2E0
:101710001821C2F2000108681044086070470000F8
:1017200080B543F60041C4F20201086840F400703D
:101730000860086840F480600860086840F48070C1
:101740000860032000F08AF80F2000F005F800F090
:101750003BF8002080BD000080B582B0009040F2D0
:101760000000C2F20000006840F24801C2F200012D
:101770000A784FF47A71B1FBF2F1B0FBF1F000F0AE
:10178000DBFD20B1FFE701208DF8070018E000988D
:101790000F280DD8FFE700994FF0FF30002200F02E
:1017A00043F8009840F24C01C2F20001086003E0E7
:1017B00001208DF8070003E000208DF80700FFE707
:1017C0009DF8070002B080BD82B0FFE700200190C5
:1017D00043F64400C4F20200016841F48041016014
:1017E000006800F4804001900198FFE7FFE70020C7
:1017F000009043F64000C4F20200016841F08051BD
:101800000160006800F0805000900098FFE702B08F
:101810007047000080B582B08DF807009DF9070081
:1018200001F0D4FD02B080BD80B586B08DF8170000
:10183000049103920020029001F0E0FD02909DF9D6
:101840001700019002980499039A01F01FF90146CC
:10185000019801F0DBFD06B080BD000080B582B0CC
:101860000190019801F0F4FD02B080BD80B584B014
:1018700000200290FFE70020019043F64000C4F2F0
:101880000200016841F080510160006800F0805062
:1018900001900198FFE74021C4F20E210120086069
:1018A000FFF72AFF0290FFE747F20400C4F20000AE
:1018B000006800F48030B0F5803F0DD0FFE7FFF7FF
:1018C0001BFF0299401AB0F57A7F04D9FFE7032085
:1018D0008DF80F0025E0E7E74421C4F20E21012036
:1018E0000860FFF709FF0290FFE747F20400C4F227
:1018F0000000006800F40030B0F5003F0DD0FFE7B5
:10190000FFF7FAFE0299401AB0F57A7F04D9FFE793
:1019100003208DF80F0004E0E7E700208DF80F00AA
:10192000FFE79DF80F0004B080BD000080B584B0D3
:1019300002900191029820B9FFE701208DF80F0075
:1019400021E1019843F60041C4F20201096801F067
:101950000F01884212D9FFE7019943F60040C4F213
:1019600002000170006800F00F000199884204D065
:10197000FFE701208DF80F0005E1FFE702980078EE
:10198000800700282AD5FFE7029800784007002842
:1019900009D5FFE743F60801C4F20201086840F4E4
:1019A000E0500860FFE7029800780007002809D59A
:1019B000FFE743F60801C4F20201086840F4604002
:1019C0000860FFE743F60801C4F20201086820F04E
:1019D000F000029A926810430860FFE702980078CE
:1019E000C00700286ED0FFE702984068012811D197
:1019F000FFE743F60000C4F20200006800F4003183
:101A00000020B0EB514F04D1FFE701208DF80F000B
:101A1000B9E02CE002984068022805D0FFE7029860
:101A20004068032811D1FFE743F60000C4F202002A
:101A3000006800F000710020B0EB516F04D1FFE7A7
:101A400001208DF80F009EE010E043F60000C4F284
:101A50000200006800F002010020B0EB510F04D139
:101A6000FFE701208DF80F008DE0FFE7FFE743F669
:101A70000801C4F20201086820F00300029A5268CB
:101A800010430860FFF738FE0090FFE743F60800B8
:101A9000C4F20200006800F00C0002994968B0EB43
:101AA000810F0ED0FFE7FFF727FE0099401A41F2A1
:101AB0008931884204D3FFE703208DF80F0062E0EC
:101AC000E4E7FFE7019843F60041C4F20201096828
:101AD00001F00F01884212D2FFE7019943F600405E
:101AE000C4F202000170006800F00F000199884202
:101AF00004D0FFE701208DF80F0044E0FFE70298D3
:101B00000078400700280CD5FFE743F60801C4F22F
:101B10000201086820F4E050029AD268104308607D
:101B2000FFE702980078000700280DD5FFE743F68D
:101B30000801C4F20201086820F46040029A1269A8
:101B400040EAC2000860FFE700F022F843F608010F
:101B5000C4F202010968C9B20A0943F66C01C0F671
:101B60000001895CC84040F20001C2F20001086037
:101B700040F24C00C2F200000068FFF7EDFD0020CB
:101B80008DF80F00FFE79DF80F0004B080BD000046
:101B900080B586B00020059004900390029043F633
:101BA0000800C4F20200006800F00C000146019138
:101BB00040B1FFE7019804280AD0FFE70198082800
:101BC0000CD04FE042F20040C0F2F40002904FE02F
:101BD00041F60030C0F2B700029049E043F604003D
:101BE000C4F20200016801F03F0105910068400263
:101BF000002813D5FFE743F60400C4F20200006892
:101C0000C0F3881041F60031C0F2B701A0FB01011A
:101C1000059A0023FEF752FB049012E043F60400FD
:101C2000C4F202000068C0F3881042F20041C0F222
:101C3000F401A0FB0101059A0023FEF73FFB04908D
:101C4000FFE743F60400C4F20200006800F44031EC
:101C5000022000EBD130039004980399B0FBF1F01F
:101C6000029005E042F20040C0F2F4000290FFE76B
:101C7000029806B080BD000080B586B0049004983C
:101C800020B9FFE701208DF8170050E30498007891
:101C9000C007002800F0A580FFE743F60800C4F263
:101CA0000200006800F00C00042813D0FFE743F6A0
:101CB0000800C4F20200006800F00C0008281ED1E1
:101CC000FFE743F60400C4F2020000684002002867
:101CD00015D5FFE743F60000C4F20200006800F4E7
:101CE00000310020B0EB514F08D0FFE70498406866
:101CF00020B9FFE701208DF8170018E370E0FFE737
:101D000004984068B0F5803F09D1FFE743F6000131
:101D1000C4F20201086840F48030086020E00498B2
:101D20004068B0F5A02F0DD1FFE743F60001C4F2E3
:101D30000201086840F480200860086840F48030A0
:101D400008600CE043F60001C4F20201086820F4C8
:101D500080300860086820F480200860FFE7FFE713
:101D6000FFE704984068E8B1FFE7FFF7C5FC039080
:101D7000FFE743F60000C4F20200006800F40031FF
:101D80000020B0EB514F0CD1FFE7FFF7B5FC0399F2
:101D9000401A652804D3FFE703208DF81700C6E238
:101DA000E7E71CE0FFF7A8FC0390FFE743F600001D
:101DB000C4F20200006800F400310020B0EB514F83
:101DC0000CD0FFE7FFF798FC0399401A652804D36D
:101DD000FFE703208DF81700A9E2E7E7FFE7FFE739
:101DE000FFE7049800788007002840F19680FFE71D
:101DF00043F60800C4F20200006810F00C0F13D084
:101E0000FFE743F60800C4F20200006800F00C008F
:101E100008282CD1FFE743F60400C4F20200006852
:101E20004002002823D4FFE743F60000C4F202007A
:101E3000006800F002010020B0EB510F09D0FFE76D
:101E40000498C068012804D0FFE701208DF817002E
:101E50006DE243F60001C4F20201086820F0F800C8
:101E6000049A126940EAC2000860FFE754E004984F
:101E7000C06870B3FFE70021C4F247210120086069
:101E8000FFF73AFC0390FFE743F60000C4F20200BC
:101E9000006800F002010020B0EB510F0CD1FFE709
:101EA000FFF72AFC0399401A032804D3FFE7032015
:101EB0008DF817003BE2E7E743F60001C4F20201A8
:101EC000086820F0F800049A126940EAC20008602D
:101ED00021E00021C4F2472100200860FFF70CFC3C
:101EE0000390FFE743F60000C4F20200006800F030
:101EF00002010020B0EB510F0CD0FFE7FFF7FCFB15
:101F00000399401A032804D3FFE703208DF8170034
:101F10000DE2E7E7FFE7FFE7FFE704980078000737
:101F200000284BD5FFE70498406918B3FFE740F657
:101F30008061C4F2472101200860FFF7DDFB0390B8
:101F4000FFE743F67400C4F20200006800F00201EB
:101F50000020B0EB510F0CD1FFE7FFF7CDFB039949
:101F6000401A032804D3FFE703208DF81700DEE1B1
:101F7000E7E722E040F68061C4F2472100200860D4
:101F8000FFF7BAFB0390FFE743F67400C4F20200C8
:101F9000006800F002010020B0EB510F0CD0FFE709
:101FA000FFF7AAFB0399401A032804D3FFE7032095
:101FB0008DF81700BBE1E7E7FFE7FFE7049800783B
:101FC0004007002840F1CE80FFE700208DF8070091
:101FD00043F64000C4F202000068C000002815D497
:101FE000FFE7FFE70020009043F64000C4F2020044
:101FF000016841F080510160006800F0805000905D
:102000000098FFE701208DF80700FFE747F2000086
:10201000C4F200000068C005002822D4FFE747F2A0
:102020000001C4F20001086840F480700860FFF706
:1020300063FB0390FFE747F20000C4F20000006872
:10204000C00500280CD4FFE7FFF756FB0399401AA0
:10205000032804D3FFE703208DF8170067E1EAE7C0
:10206000FFE7FFE704988068012809D1FFE743F6FE
:102070007001C4F20201086840F0010008601FE02E
:102080000498806805280DD1FFE743F67001C4F27B
:102090000201086840F004000860086840F0010090
:1020A00008600CE043F67001C4F20201086820F0F9
:1020B00001000860086820F004000860FFE7FFE7FF
:1020C000FFE704988068F8B1FFE7FFF715FB03907E
:1020D000FFE743F67000C4F20200006800F002015E
:1020E0000020B0EB510F0ED1FFE7FFF705FB03997E
:1020F000401A41F28931884204D3FFE703208DF86A
:10210000170014E1E5E71EE0FFF7F6FA0390FFE79A
:1021100043F67000C4F20200006800F002010020E3
:10212000B0EB510F0ED0FFE7FFF7E6FA0399401A24
:1021300041F28931884204D3FFE703208DF817006C
:10214000F5E0E5E7FFE79DF80700012809D1FFE783
:1021500043F64001C4F20201086820F08050086094
:10216000FFE7FFE704988069002800F0DC80FFE7C4
:1021700043F60800C4F20200006800F00C000828D2
:1021800000F08580FFE70498806902285CD1FFE7B2
:102190006021C4F2472100200860FFF7ADFA0390E8
:1021A000FFE743F60000C4F20200006800F000718F
:1021B0000020B0EB516F0CD0FFE7FFF79DFA0399B9
:1021C000401A032804D3FFE703208DF81700AEE080
:1021D000E7E70499C869D1F820C04B6A8A6A40EAE7
:1021E0000C0040EA8310D2034FF6FF739A43A2F526
:1021F00080321043C96A40EA016043F60401C4F228
:10220000020108606021C4F2472101200860FFF745
:1022100073FA0390FFE743F60000C4F2020000687F
:1022200000F000710020B0EB516F0CD1FFE7FFF719
:1022300063FA0399401A032804D3FFE703208DF8BB
:10224000170074E0E7E721E06021C4F24721002095
:102250000860FFF751FA0390FFE743F60000C4F26D
:102260000200006800F000710020B0EB516F0CD04C
:10227000FFE7FFF741FA0399401A032804D3FFE769
:1022800003208DF8170052E0E7E7FFE74AE00498E3
:102290008069012804D1FFE701208DF8170046E08E
:1022A00043F60400C4F202000068029004988069BA
:1022B000012831D0FFE7029800F480000499C96931
:1022C000884229D1FFE7029800F03F000499096A8B
:1022D000884221D1FFE7029847F6C071084004996F
:1022E000496AB0EB811F17D1FFE7029800F4403034
:1022F0000499896AC9034FF6FF729143A1F58031B1
:10230000884209D1FFE7029800F070600499C96A19
:10231000B0EB016F04D0FFE701208DF8170006E055
:10232000FFE7FFE7FFE700208DF81700FFE79DF8C4
:10233000170006B080BD000080B582B00190019802
:1023400000F0DEFB02B080BD81B0009001B07047AC
:1023500081B0009001B0704785B003900291FFE713
:10236000039890F83C00012804D1FFE702208DF883
:1023700013007EE00399012081F83C00FFE7FFE7AE
:102380000399022081F83D0003980068406801909D
:102390000398006880680090019820F07000019018
:1023A000029801680198084301900198039909680F
:1023B0004860039800680021C4F2010188423CD0C3
:1023C000FFE703980068B0F1804F36D0FFE703982D
:1023D000006840F20041C4F2000188422DD0FFE7BE
:1023E0000398006840F60001C4F20001884224D03E
:1023F000FFE70398006840F60041C4F200018842FC
:102400001BD0FFE70398006840F20041C4F20101CD
:10241000884212D0FFE70398006844F20001C4F23A
:102420000101884209D0FFE70398006841F60001E6
:10243000C4F2000188420ED1FFE7009820F080002E
:102440000090029841680098084300900098039912
:1024500009688860FFE70399012081F83D00FFE7E4
:102460000399002081F83C00FFE700208DF813005D
:10247000FFE79DF8130005B07047000080B582B0FB
:102480000090009820B9FFE701208DF807003FE099
:10249000009890F83D0040B9FFE70099002081F8CE
:1024A0003C00009800F038F8FFE70099022081F81E
:1024B0003D00009951F8040B00F0C8FB0099012081
:1024C00081F84600FFE70099012081F83E0000995D
:1024D00081F83F00009981F84000009981F841009F
:1024E000FFE7FFE70099012081F84200009981F899
:1024F0004300009981F84400009981F84500FFE706
:102500000099012081F83D0000208DF80700FFE7C9
:102510009DF8070002B080BD80B584B00390039899
:10252000006841F20001C4F2000188421BD1FFE7BC
:10253000FFE70020029043F64000C4F20200016869
:1025400041F010010160006800F010000290029854
:10255000FFE73620019002210022FFF765F901987C
:10256000FFF758F9FFE704B080BD000083B0019089
:10257000019890F83D00012804D0FFE701208DF874
:102580000B006AE00199022081F83D000198016882
:10259000C86840F00100C860019800680021C4F2DA
:1025A000010188423CD0FFE701980068B0F1804FFC
:1025B00036D0FFE70198006840F20041C4F2000104
:1025C00088422DD0FFE70198006840F60001C4F270
:1025D0000001884224D0FFE70198006840F60041DE
:1025E000C4F2000188421BD0FFE70198006840F266
:1025F0000041C4F20101884212D0FFE7019800684F
:1026000044F20001C4F20101884209D0FFE70198B9
:10261000006841F60001C4F20001884212D1FFE7D0
:1026200001980068806800F0070000900098062874
:1026300007D0FFE701980168086840F001000860D2
:10264000FFE706E001980168086840F001000860B3
:10265000FFE700208DF80B00FFE79DF80B0003B0AB
:102660007047000081B0009001B0704780B584B021
:10267000039003980068C06802900398006800699E
:1026800001909DF804008007002824D5FFE79DF8FD
:102690000800800700281DD5FFE7039801686FF048
:1026A0000200086103990120087703980068806997
:1026B000800720B1FFE70398FFF7D4FF06E00398F7
:1026C00000F0E2F8039800F0E3F8FFE70399002038
:1026D0000877FFE7FFE79DF804004007002825D5AD
:1026E000FFE79DF80800400700281ED5FFE7039884
:1026F00001686FF0040008610399022008770398CD
:102700000068806910F4407F04D0FFE70398FFF76A
:10271000A9FF06E0039800F0B7F8039800F0B8F8B6
:10272000FFE7039900200877FFE7FFE79DF8040023
:102730000007002824D5FFE79DF8080000070028BF
:102740001DD5FFE7039801686FF008000861039941
:102750000420087703980068C069800720B1FFE76C
:102760000398FFF77FFF06E0039800F08DF80398C9
:1027700000F08EF8FFE7039900200877FFE7FFE7F6
:102780009DF80400C006002825D5FFE79DF8080045
:10279000C00600281ED5FFE7039801686FF01000FF
:1027A000086103990820087703980068C06910F44D
:1027B000407F04D0FFE70398FFF754FF06E003983B
:1027C00000F062F8039800F063F8FFE70399002037
:1027D0000877FFE7FFE79DF80400C00778B1FFE73F
:1027E0009DF80800C00748B1FFE7039801686FF043
:1027F00001000861039800F04FF8FFE7FFE79DF83C
:1028000004000006002810D5FFE79DF80800000628
:10281000002809D5FFE7039801686FF08000086180
:102820000398FFF791FDFFE7FFE79DF804004006DE
:10283000002810D5FFE79DF808004006002809D5BC
:10284000FFE7039801686FF040000861039800F00B
:1028500057F8FFE7FFE79DF804008006002810D531
:10286000FFE79DF808008006002809D5FFE70398D8
:1028700001686FF0200008610398FFF769FDFFE72A
:10288000FFE704B080BD000081B0009001B0704748
:1028900081B0009001B0704780B584B00390039878
:1028A000006840F2A411C2F200010968884224D1F4
:1028B000FFE740F2B000C2F20000019000F0C4FB5C
:1028C000019840F21021C2F20001029100F0BEFA1C
:1028D000029A40F23001C2F200014FF40070086029
:1028E0000820086140F27C10C2F2000040F2781328
:1028F000C2F20003FDF724FEFFE704B080BD000034
:1029000081B0009001B07047FFE7FEE780B582B06C
:1029100040F27C10C2F20000009046F20041C4F286
:102920000001016003214160002101918160C160CB
:102930004FF4102202614FF4401242610176417659
:102940008176C17601774177FEF77EFA18B1FFE70D
:10295000FDF7C8FDFFE702B080BD000080B58AB07A
:10296000002009900890079006900590FFE700204E
:10297000049043F63000C4F20200016841F0010106
:102980000160006800F0010004900498FFE7FFE791
:102990000020039043F63000C4F20200016841F0C9
:1029A00008010160006800F0080003900398FFE749
:1029B000FFE70020029043F63000C4F202000168F5
:1029C00041F080010160006800F0800002900298F0
:1029D000FFE7FFE70020019043F63000C4F2020059
:1029E000016841F002010160006800F002000190FE
:1029F0000198FFE7042005904FF48810069002200C
:102A0000079040F20040C4F2020005A9FEF764FC02
:102A10000820009000221146FEF706FF0098FEF7FE
:102A2000F9FE0AB080BD000080B582B0002101919E
:102A3000009140F2A410C2F2000041F20002C4F280
:102A400000020260B3224260816040F2E732C2605D
:102A50008161FFF713FD18B1FFE7FDF743FDFFE7C5
:102A600000200090019040F2A410C2F200006946DC
:102A7000FFF772FC18B1FFE7FDF734FDFFE702B086
:102A800080BD0000FFE7FEE7FFE7FEE788B00790A4
:102A900006910592079800F0070004900498C0F191
:102AA0000700052803D3FFE70420019004E0049801
:102AB000C0F107000190FFE70198039004980430EB
:102AC000062803D8FFE70020009003E004980338AD
:102AD0000090FFE70098029006980399012202FAFD
:102AE00001F101390840029B984005999A40013A4A
:102AF0001140084308B0704770470000704700005D
:102B000080B582B0009000980138B0F1807F03D387
:102B1000FFE70120019019E0009801384EF21401FE
:102B2000CEF2000108604FF0FF300F2100F06EFC84
:102B30004EF21801CEF20001002008604EF21002A1
:102B4000CEF20002072111600190FFE7019802B068
:102B500080BD000080B5FEF7D5FD80BD80B594B086
:102B600008A83021FDF722FC002007900690059070
:102B700004900390FFE70020029043F64000C4F267
:102B80000200016841F080510160006800F080504F
:102B900002900298FFE7FFE70020019047F2000053
:102BA000C4F20000016841F440410160006800F493
:102BB000404001900198FFE7012008904FF48030D9
:102BC000099002200E904FF480010F910621109180
:102BD000B421119112900420139008A8FFF74CF82B
:102BE00018B1FFE7FDF77EFCFFE7FEF73FFE18B1E7
:102BF000FFE7FDF777FCFFE70F200390022004902A
:102C0000002005904FF4A05006904FF4805007909C
:102C100003A80521FEF78AFE18B1FFE7FDF762FC65
:102C2000FFE714B080BD00004EF68851CEF20001DF
:102C3000086840F4700008607047000080B540F2FA
:102C4000A410C2F20000FFF711FD80BD83B0029016
:102C5000019102980068009002980021C4F20101DD
:102C6000884225D0FFE70298B0F1804F20D0FFE7DF
:102C7000029840F20041C4F20001884218D0FFE7F8
:102C8000029840F60001C4F20001884210D0FFE72C
:102C9000029840F60041C4F20001884208D0FFE7E4
:102CA000029840F20041C4F2010188420AD1FFE7D4
:102CB000009820F070000090019841680098084347
:102CC0000090FFE702980021C4F20101884255D02C
:102CD000FFE70298B0F1804F50D0FFE7029840F232
:102CE0000041C4F20001884248D0FFE7029840F654
:102CF0000001C4F20001884240D0FFE7029840F68C
:102D00000041C4F20001884238D0FFE7029840F247
:102D10000041C4F20101884230D0FFE7029844F23A
:102D20000001C4F20101884228D0FFE7029844F272
:102D30000041C4F20101884220D0FFE7029844F626
:102D40000001C4F20101884218D0FFE7029841F661
:102D50000001C4F20001884210D0FFE7029841F65A
:102D60000041C4F20001884208D0FFE7029842F215
:102D70000001C4F2000188420AD1FFE7009820F464
:102D8000407000900198C168009808430090FFE7E8
:102D9000009820F08000019949690843009001984B
:102DA00080680299C8620198006802998862029856
:102DB0000021C4F20101884208D0FFE7029840F2E6
:102DC0000041C4F20101884205D1FFE70198006982
:102DD00002990863FFE70299086840F00400086060
:102DE00002990120486100980299086003B0704779
:102DF000FFE7FEE780B500F049FB80BD86B0059097
:102E0000049103928DED020ACDED010A9DED020AB7
:102E10009DED011A31EE401A05980499401A02EE10
:102E2000100AB8EEC22A21EE021A0398401A02EEE6
:102E3000100AB8EEC22A81EE021A30EE010A8DEDB8
:102E4000000A9DED000A06B07047000084B00390B0
:102E50000291039890ED300A9FED131A20EE010ABB
:102E6000B3EE041A80EE010ABDEEC00A10EE100A9D
:102E7000ADF8060000200090FFE70098072809DC65
:102E8000FFE70299009A00208854FFE7009801307C
:102E90000090F2E79DF8070002990870BDF806005F
:102EA0000299487004B070470000804680B584B035
:102EB00003900291039801900299098849BA00EEA3
:102EC000101AB8EEC00A80ED040A0299498849BA7E
:102ED00000EE101AB8EEC00A80ED070A0299898840
:102EE00049BA00EE101AB8EEC00A80ED080A02993D
:102EF000897900EE101AB8EE400A80ED090A90EDCB
:102F0000040ABDEEC00A10EE100A002141F6FF725D
:102F10009FED270ADFED270AFFF770FF019880ED8C
:102F2000040A90ED040A90ED051A30EE410A80ED96
:102F3000060A90ED060A9FED201AB4EE410AF1EE62
:102F400010FA0ADDFFE7019890ED060A9FED1C1AC2
:102F500030EE010A80ED060A15E0019890ED060AB0
:102F60009FED161AB4EE410AF1EE10FA0ADAFFE705
:102F7000019890ED060A9FED0F1A30EE010A80EDE0
:102F8000060AFFE7FFE701980169416190ED001A29
:102F900090ED060A80EE010A80ED030A90ED020A28
:102FA00090ED031A30EE010A80ED020A04B080BDF4
:102FB000000000000000B44300003443000034C3AC
:102FC0000000B4C380B58AB009908DED080A099855
:102FD00001904FF07C50079044F25730C3F6625096
:102FE00006904CF6CD40C4F21C1005909DED080AE9
:102FF0009FED121A20EE010A9FED111A80EE010AD0
:1030000000F090FA01989FED0F1A20EE010A8DED65
:10301000040A9DED040A90ED001A80EE010A8DED80
:10302000030A9DED030A90ED011A80EE010A8DED71
:10303000020A9DED020A0AB080BD00BFD00F4940D0
:10304000000034430C968A3E80B586B00590059802
:10305000029040F22C00C2F20000007828B1FFE795
:1030600002990020C1F8C0006CE002988168C0F8A5
:10307000AC10C169C0F8B41090F8C40001460191C9
:1030800040B1FFE70198012805D0FFE70198022829
:1030900016D044E043E0029901F1280091ED2C0A9A
:1030A000D1ED2D0A00F0AAF8029880ED300A90EDDB
:1030B0002F1A90ED300A30EE010A80ED300A2EE032
:1030C000029890ED2B0AFFF77DFF02998DED040A1F
:1030D00001F1680091ED2A0AD1ED2B0A00F08EF87B
:1030E000029991ED2E1A30EE010A81ED2C0A01F1C0
:1030F000280091ED2C0AD1ED2D0A00F07FF80298FE
:1031000080ED300A9DED042A90ED2F1A90ED300AE3
:1031100031EE021A30EE010A80ED300AFFE7029923
:1031200001F1C00001F13C0291ED0F0AB1EE400A3D
:103130008DED030A03A900F019F902990068C1F89E
:10314000C000FFE706B080BD80B588B007908DED68
:10315000060ACDED050A07980390069901600599C6
:103160004160002104918160C16001614161816120
:10317000C161016241622830B2EE040ADFED1B0A30
:10318000CDED000A9FED1A1A9FED1A2A8DED012A46
:10319000F7EE002ACDED022AF0EE421A00F0AAF86E
:1031A00003989DED001A9DED012ADDED022A68309D
:1031B000B1EE040ADFED100AF0EE421A00F09AF8C0
:1031C00003980499C0F8A810C0F8AC10C0F8B0106B
:1031D000C0F8B410C0F8B810C0F8BC10C0F8C010E7
:1031E000012180F8C41008B080BD00BFCDCCCC3D1B
:1031F000CDCC4C3E0000C8420000000080B586B037
:1032000005908DED040ACDED030A0599009104980F
:10321000C8610398086291ED070A91ED081A30EE33
:10322000410A81ED090A91ED000A91ED091A20EE9B
:10323000010A81ED0C0A01F1280091ED091A91EDC6
:103240000A0A30EE010A81ED0A0A01F1100291ED3D
:10325000040AB1EE400A8DED020A02A900F086F8D8
:10326000014600980968816290ED010A90ED0A1A02
:1032700020EE010A80ED0D0A90ED090A90ED0B1A7F
:1032800030EE410A80ED0E0A90ED030A90ED0E3A01
:1032900090ED0F2AB7EE001A31EE401A21EE031A14
:1032A00020EE020A30EE010A80ED0E0A90ED0C0AC3
:1032B00090ED0D2A90ED0E1A30EE020A30EE010A62
:1032C00000F1180280ED060A90ED050AB1EE400A01
:1032D0008DED010A01A9104600F048F8014600985A
:1032E00009688161416AC162816BC16390ED060A20
:1032F00006B080BD87B006908DED050ACDED040ABD
:103300008DED031ACDED021A8DED012ACDED002AC7
:1033100006980599016004994160039981600299BA
:103320000161019941610099C16000218161C16120
:10333000016241628162C162016341638163C16371
:1033400007B0704783B0029001910092019890ED10
:10335000000A009890ED001A0020B4EE410AF1EE48
:1033600010FAB8BF012003B07047000080B584B0E8
:1033700003900291019203980299019A00F002F8D9
:1033800004B080BD80B586B0049003910292049988
:10339000039A0DF11700FFF7D5FF18B1FFE7039867
:1033A000019010E00299049A0DF11700FFF7CAFF8F
:1033B00018B1FFE70298009002E004980090FFE740
:1033C00000980190FFE7019806B080BD81B08DF8AC
:1033D00003009DF9030000280ED4FFE79DF90310B8
:1033E00001F01F02012090404A094EF20011CEF276
:1033F000000141F82200FFE701B070474EF60C5083
:10340000CEF200000068C0F30220704782B08DF851
:10341000070000919DF9070000280AD4FFE70098F3
:1034200000019DF907104EF20042CEF200028854CE
:103430000BE0009800019DF8071001F00F014EF617
:103440001452CEF200028854FFE702B07047000029
:1034500083B00290029800F0070000904EF60C51E5
:10346000CEF200010868019001984FF6FF0210406B
:1034700001900198009A40EA02200022C0F2FA521C
:10348000104301900198086003B0704780B540F286
:10349000B000C2F200009FED030ADFED030AFFF760
:1034A00053FE80BD9A9999419A99993E80B582B010
:1034B00000200190FEF734F9FFF750FBFFF74EFABA
:1034C000FFF724FAFFF7B0FA40F27C10C2F20000D6
:1034D000009040F20401C2F20001FDF7DDF800980F
:1034E000FDF736FE00980221FDF700F840F2A41027
:1034F000C2F20000FFF73AF8FFE7FEE741000802DA
:1035000018BF04200A0E18BF40F001004FF07F42A0
:1035100032EA010108BF40F00200012808BF05207F
:103520007047000000B510EE101A2DED028B81B02F
:10353000524A6846B2EB410F2ED94FF0E640B0EB4D
:10354000410F94BF00204FF0FF3000900098B0EE84
:10355000408A00286ADB10F0010F4BD068EE080AA1
:103560009FED471A9FED470A00EE810A9FED461A2C
:1035700010F0020F00EE801AB7EE000A00EE810A8A
:1035800002BF01B0BDEC028B00BD00BF01B0B1EEC7
:10359000400ABDEC028B00BD3C4B21F0004293423F
:1035A00041D911F0004FDFED3A0A20EE201ADFED8D
:1035B000390A19BF31EE601A71EE200A31EE201A75
:1035C00071EE600ABDEEE01A11EE100A9FED321A9C
:1035D00000F0030000EEC10A9FED301A009000EEEB
:1035E000C10A9FED2F1A00EEC10A9FED2E1A00EEC0
:1035F000C10AABE728EE080A9FED2B1ADFED2B0A74
:1036000010F0020F40EE010A9FED291A00EE201A79
:1036100061EE000AB0EE480A08EE200AB6D101B009
:10362000BDEC028B00BD00F059F88FE718EE100AD0
:103630004000B0F17F4F0DD218EE100AFFF75EFF89
:10364000042808BF00F042F8B0EE480A01B0BDEC13
:10365000028B00BD09D10120FCF7EDFE01B0BDECED
:10366000028B5DF804EB00F029B801B0B0EE480A17
:10367000BDEC028B5DF804EB00F01CB8B61F927E27
:10368000B93AB2BACA9F2A3DDDFFFFBE490E49468C
:1036900083F9223F0000004B0000C93F00A0FD3924
:1036A0000020A2331A61342C336D4CB9DA82083C05
:1036B000A0AA2ABE30EE000A70470000DFED020A21
:1036C00080EEA00A70470000000000009FED020A93
:1036D00020EE000A70470000000000102DE9F00104
:1036E0004FF07F42B2EB410F9FBF4FF0FF310160BF
:1036F000BDE8F00170474FF0004242EA0123C1F3F8
:10370000C752783A551112F01F0C434CCCF12006E9
:103710007C44C1F3C752A2F178024FEA621204EB73
:10372000820254F8254008BFD2E9015612D05568EC
:1037300004FA0CF425FA06F73C43976805FA0CF5F1
:1037400027FA06F8D26807FA0CFCF24045EA0805A9
:103750004CEA0206A4FB034CA5FB0352A6FB036341
:103760001D449D4234BF012600261319334416B16F
:10377000934202D903E0934201D2012200E00022E9
:10378000624402F1200C9206DC0C42EA443200EE64
:10379000102A5B03DFED210AF8EEC01A00EE103AA2
:1037A0004FEA9C1C11F0004FB8EE400AC0F800C070
:1037B00020EE201A00EE105ADFED190AB8EE400A8A
:1037C00020EE200A71EE810A70EE800A10EE902A37
:1037D00002F500626FF30B0200EE902A70EEE11A20
:1037E00031EEC11ADFED101A30EE411A9FED0D0ACD
:1037F00020EE800A01EE210A9FED0C1A00EE810AEC
:1038000004BFBDE8F0017047CCF180510160BDE814
:10381000F001B1EE400A70473801000000000036A8
:103820000000802C22AAFD29DB0FC92F0000C92F20
:10383000F1EE100A4FF6FF71C0F2C03120EA01002C
:1038400040F04070E1EE100A7047000000000000F8
:103850006E83F9A22915444ED15727FCC0DD34F5FB
:10386000999562DB4190433CAB6351FE0000000040
:10387000000000000102030406070809A038000840
:10388000000000205000000010020008F03800087E
:1038900050000020D00700003002000859F5FFFF5B
:1038A0000024F40000000000000000000000000000
:1038B0000000000000000000000000000000000008
:1038C00001000000010000000000000001000000F5
:1038D00000020000000000000000000000000000E6
:1038E00008000000000000000100000010000000BF
:04000005080001AD41
:00000001FF
