:020000040800F2
:100000009006002079020008C9160008351500087E
:10001000C5160008710400087D18000800000000E3
:100020000000000000000000000000003D17000874
:100030007504000800000000391700089517000833
:10004000930200089302000893020008930200083C
:10005000930200089302000893020008930200082C
:10006000930200089302000893020008930200081C
:10007000930200089302000893020008930200080C
:1000800093020008930200089302000893020008FC
:1000900093020008930200089302000893020008EC
:1000A00093020008930200089302000893020008DC
:1000B00093020008930200089302000893020008CC
:1000C00093020008930200089302000893020008BC
:1000D00093020008930200089302000893020008AC
:1000E000930200089302000893020008930200089C
:1000F000930200089302000893020008930200088C
:10010000930200089302000893020008930200087B
:10011000930200089302000893020008930200086B
:10012000930200089302000893020008930200085B
:10013000930200089302000893020008930200084B
:10014000930200089302000893020008930200083B
:10015000930200089302000893020008930200082B
:10016000930200089302000893020008930200081B
:1001700093020008930200089302000800000000A8
:1001800093020008930200089302000893020008FB
:1001900093020008930200089302000893020008EB
:1001A00000000000000000009302000800F002F8C8
:1001B00000F052F814A696E8000CB244B344DA45B5
:1001C00001D100F049F8BAE80F000FA696E8300018
:1001D000A5EB040504EB0607AAEB0704A7F101074A
:1001E0004FEA15154FEA3414A4F10104AC4201D3CF
:1001F00000F032F813F0010F18BFFB1A43F00103AF
:1002000000F001F8DBE718476418000084180000CC
:10021000103A24BF78C878C1FAD8520724BF30C832
:1002200030C144BF04680C60704700007047000094
:100230000023002400250026103A28BF78C1FBD8EF
:10024000520728BF30C148BF0B6070471FB501F08F
:10025000F7FB1FBD10B510BD00F0D0F81146FFF739
:10026000F5FF01F055FB00F0EEF803B4FFF7F2FFE5
:1002700003BC00F0F5F80000094880470948004732
:10028000FEE7FEE7FEE7FEE7FEE7FEE7FEE7FEE746
:10029000FEE7FEE704480549054A064B70470000A3
:1002A00069180008AD0100089000002090060020A9
:1002B000900200209002002053EA020C00F06980B6
:1002C0002DE9F04B4FF00006002B1FBFB3FA83F56A
:1002D00003FA05F424FA05F65E4012BF1643B2FA9B
:1002E00082F502FA05F4C5F120051EBF22FA05FCCD
:1002F00044EA0C04203556EA044C4FEA144418BF73
:10030000641C4FF000084FF00009904271EB030CA1
:1003100039D3002919BFB1FA81F701FA07F6B0FA0B
:1003200080F700FA07F6C7F120071EBF20FA07FC86
:1003300046EA0C062037B6FBF4FCA7EB0507103F96
:1003400007F01F0BCBF120062CFA06F60CFA0BFB7C
:1003500044BFB3460026202FA4BF5E464FF0000BDB
:100360005BEA060C08BF4FF0010B19EB0B0948EBD9
:100370000608ABFB027C06FB02CC0BFB03CCC01BCC
:1003800071EB0C01C1E70B46024641464846BDE809
:10039000F08B13B5084318BF4FF0FF300146AFF3A1
:1003A0000080BDE81C4070474FF0000200B51346C6
:1003B00094469646203922BFA0E80C50A0E80C5085
:1003C000B1F12001BFF4F7AF090728BFA0E80C5036
:1003D00048BF0CC05DF804EB890028BF40F8042B2F
:1003E00008BF704748BF20F8022B11F0804F18BF9C
:1003F00000F8012B7047704770477047754600F052
:100400002BF8AE4605006946534620F007008546A6
:1004100018B020B5FFF73EFFBDE820404FF00006C2
:100420004FF000074FF000084FF0000BAC46ACE86F
:10043000C009ACE8C009ACE8C009ACE8C00921F0CB
:1004400007018D46704710B50446AFF30080204683
:10045000BDE81040FFF709BF0048704718000020B2
:1004600001491820ABBEFEE72600020070470000DD
:10047000FFE7FEE77047000072B6FFE7FEE7000007
:1004800090B00F900E9100200C900B900A900D9060
:10049000FFE70D980F2800F2E881FFE70D99012092
:1004A00088400C900E9800680C9908400B900B98AF
:1004B0000C99884240F0D481FFE70E98406800F024
:1004C0000300012807D0FFE70E98406800F0030002
:1004D00002282FD1FFE70F9880680A900D984100FD
:1004E000032000FA01F10A9888430A900E98C06828
:1004F0000D99490000FA01F10A9808430A900A98F8
:100500000F9988600F9840680A900D99012000FAB1
:1005100001F10A9888430A900E984068C0F30010D1
:100520000D9900FA01F10A9808430A900A980F9968
:100530004860FFE70E98406800F00300032818D0D9
:10054000FFE70F98C0680A900D984100032000FA59
:1005500001F10A9888430A900E9880680D99490025
:1005600000FA01F10A9808430A900A980F99C860A6
:10057000FFE70E98406800F00300022826D1FFE74D
:100580000F980D996FF0030202EA51010844006AC6
:100590000A900D9800F0070081000F2000FA01F189
:1005A0000A9888430A900E9800690D9901F0070196
:1005B000890000FA01F10A9808430A900A980F99F5
:1005C0000D9B02EA530211440862FFE70F9800688E
:1005D0000A900D984100032000FA01F10A9888431F
:1005E0000A900E98406800F003000D99490000FA47
:1005F00001F10A9808430A900A980F9908600E982A
:1006000080798007002800F02A81FFE7FFE70020BB
:10061000099043F64400C4F20200016841F48041AD
:100620000160006800F4804009900998FFE70D9888
:1006300020F0030043F60801C4F2010140580A907B
:100640000D9800F0030081000F2000FA01F10A98D4
:1006500088430A900F980021C4F20201884203D116
:10066000FFE7002008907AE00F9840F20041C4F2C2
:100670000201884203D1FFE7012007906CE00F9848
:1006800040F60001C4F20201884203D1FFE70220D4
:1006900006905EE00F9840F60041C4F202018842E5
:1006A00003D1FFE70320059050E00F9841F20001CD
:1006B000C4F20201884203D1FFE70420049042E023
:1006C0000F9841F20041C4F20201884203D1FFE7D2
:1006D0000520039034E00F9841F60001C4F20201B6
:1006E000884203D1FFE70620029026E00F9841F6EA
:1006F0000041C4F20201884203D1FFE707200190C4
:1007000018E00F9842F20001C4F20201884203D1BE
:10071000FFE7082000900AE00F9942F20042C4F27D
:1007200002020A20914208BF09200090FFE70098CA
:100730000190FFE701980290FFE702980390FFE71E
:1007400003980490FFE704980590FFE7059806904A
:10075000FFE706980790FFE707980890FFE70898DB
:10076000C0B20D9901F00301890000FA01F10A9865
:1007700008430A900A980D9921F0030143F60802F4
:10078000C4F20102885043F60840C4F20100006838
:100790000A900B990A9888430A900E988079C006AF
:1007A000002805D5FFE70B990A9808430A90FFE750
:1007B0000A9843F60841C4F20101086043F60C4070
:1007C000C4F2010000680A900B990A9888430A90C5
:1007D0000E9880798006002805D5FFE70B990A98C6
:1007E00008430A90FFE70A9843F60C41C4F201015E
:1007F000086043F60440C4F2010000680A900B99B7
:100800000A9888430A900E9880798007002805D5B9
:10081000FFE70B990A9808430A90FFE70A9843F606
:100820000441C4F20101086043F60040C4F2010033
:1008300000680A900B990A9888430A900E9880796C
:10084000C00728B1FFE70B990A9808430A90FFE711
:100850000A9843F60041C4F201010860FFE7FFE790
:10086000FFE70D9801300D9013E610B070470000BF
:1008700082B00190ADF8021001980069BDF8021035
:10088000084204D0FFE701208DF8010003E00020BA
:100890008DF80100FFE79DF8010002B070470000ED
:1008A00083B00290ADF80610029840690090009A5B
:1008B000BDF8060002EA0001904340EA01400299B7
:1008C000886103B07047000082B00190ADF802105B
:1008D0008DF801209DF8010028B1FFE7BDF8020066
:1008E0000199886105E0BDF8020000040199886162
:1008F000FFE702B07047000040F28C00C2F2000037
:100900000068704740F20C00C2F20000027840F22A
:100910008C01C2F2000108681044086070470000B2
:1009200080B543F60041C4F20201086840F400704B
:100930000860086840F480600860086840F48070CF
:100940000860032000F080F80F2000F005F800F0A8
:100950003BF8002080BD000080B582B0009040F2DE
:100960000000C2F20000006840F20C01C2F2000177
:100970000A784FF47A71B1FBF2F1B0FBF1F000F0BC
:10098000D1FD20B1FFE701208DF8070018E00098A5
:100990000F280DD8FFE700994FF0FF30002200F03C
:1009A00039F8009840F21001C2F20001086003E03B
:1009B00001208DF8070003E000208DF80700FFE715
:1009C0009DF8070002B080BD82B0FFE700200190D3
:1009D00043F64400C4F20200016841F48041016022
:1009E000006800F4804001900198FFE7FFE70020D5
:1009F000009043F64000C4F20200016841F08051CB
:100A00000160006800F0805000900098FFE702B09D
:100A10007047000080B586B08DF8170004910392EE
:100A20000020029000F02CFF02909DF91700019029
:100A300002980499039A00F049FE0146019800F0DB
:100A400027FF06B080BD000080B582B001900198FC
:100A500000F040FF02B080BD80B584B0002002905D
:100A6000FFE70020019043F64000C4F20200016855
:100A700041F080510160006800F0805001900198C1
:100A8000FFE74021C4F20E2101200860FFF734FF88
:100A90000290FFE747F20400C4F20000006800F48F
:100AA0008030B0F5803F0DD0FFE7FFF725FF0299BA
:100AB000401AB0F57A7F04D9FFE703208DF80F00C4
:100AC00025E0E7E74421C4F20E2101200860FFF78A
:100AD00013FF0290FFE747F20400C4F20000006831
:100AE00000F40030B0F5003F0DD0FFE7FFF704FF42
:100AF0000299401AB0F57A7F04D9FFE703208DF8F8
:100B00000F0004E0E7E700208DF80F00FFE79DF8F5
:100B10000F0004B080BD000080B584B00290019148
:100B2000029820B9FFE701208DF80F0021E101981C
:100B300043F60041C4F20201096801F00F01884246
:100B400012D9FFE7019943F60040C4F20200017098
:100B5000006800F00F000199884204D0FFE70120EF
:100B60008DF80F0005E1FFE7029800788007002864
:100B70002AD5FFE7029800784007002809D5FFE74B
:100B800043F60801C4F20201086840F4E05008602E
:100B9000FFE7029800780007002809D5FFE743F631
:100BA0000801C4F20201086840F460400860FFE7F1
:100BB00043F60801C4F20201086820F0F000029A2E
:100BC000926810430860FFE702980078C007002889
:100BD0006ED0FFE702984068012811D1FFE743F685
:100BE0000000C4F20200006800F400310020B0EB05
:100BF000514F04D1FFE701208DF80F00B9E02CE040
:100C000002984068022805D0FFE702984068032850
:100C100011D1FFE743F60000C4F20200006800F0C3
:100C200000710020B0EB516F04D1FFE701208DF877
:100C30000F009EE010E043F60000C4F202000068DE
:100C400000F002010020B0EB510F04D1FFE70120BA
:100C50008DF80F008DE0FFE7FFE743F60801C4F2CF
:100C60000201086820F00300029A526810430860ED
:100C7000FFF742FE0090FFE743F60800C4F20200CF
:100C8000006800F00C0002994968B0EB810F0ED0AB
:100C9000FFE7FFF731FE0099401A41F2893188429F
:100CA00004D3FFE703208DF80F0062E0E4E7FFE7DD
:100CB000019843F60041C4F20201096801F00F01F6
:100CC000884212D2FFE7019943F60040C4F20200C5
:100CD0000170006800F00F000199884204D0FFE71E
:100CE00001208DF80F0044E0FFE7029800784007EC
:100CF00000280CD5FFE743F60801C4F2020108689A
:100D000020F4E050029AD26810430860FFE702988E
:100D10000078000700280DD5FFE743F60801C4F26C
:100D20000201086820F46040029A126940EAC20099
:100D30000860FFE700F022F843F60801C4F2020160
:100D40000968C9B20A0941F65A21C0F60001895C56
:100D5000C84040F20001C2F20001086040F21000F9
:100D6000C2F200000068FFF7F7FD00208DF80F00C9
:100D7000FFE79DF80F0004B080BD000080B586B08D
:100D80000020059004900390029043F60800C4F2FE
:100D90000200006800F00C000146019140B1FFE73D
:100DA000019804280AD0FFE7019808280CD04FE0EA
:100DB00042F20040C0F2F40002904FE047F64000DB
:100DC000C0F27D10029049E043F60400C4F2020034
:100DD000016801F03F01059100684002002813D529
:100DE000FFE743F60400C4F202000068C0F3881075
:100DF00047F64001C0F27D11A0FB0101059A0023D6
:100E0000FFF75AFA049012E043F60400C4F202001D
:100E10000068C0F3881042F20041C0F2F401A0FB68
:100E20000101059A0023FFF747FA0490FFE743F614
:100E30000400C4F20200006800F44031022000EB1C
:100E4000D130039004980399B0FBF1F0029005E0D3
:100E500042F20040C0F2F4000290FFE7029806B0B0
:100E600080BD000080B586B00490049820B9FFE7EB
:100E700001208DF8170050E304980078C00700287F
:100E800000F0A580FFE743F60800C4F20200006806
:100E900000F00C00042813D0FFE743F60800C4F26A
:100EA0000200006800F00C0008281ED1FFE743F69E
:100EB0000400C4F2020000684002002815D5FFE7D4
:100EC00043F60000C4F20200006800F40031002084
:100ED000B0EB514F08D0FFE70498406820B9FFE716
:100EE00001208DF8170018E370E0FFE704984068D0
:100EF000B0F5803F09D1FFE743F60001C4F20201DB
:100F0000086840F48030086020E004984068B0F53C
:100F1000A02F0DD1FFE743F60001C4F202010868DB
:100F200040F480200860086840F4803008600CE0DD
:100F300043F60001C4F20201086820F48030086022
:100F4000086820F480200860FFE7FFE7FFE70498C7
:100F50004068E8B1FFE7FFF7CFFC0390FFE743F6F7
:100F60000000C4F20200006800F400310020B0EB81
:100F7000514F0CD1FFE7FFF7BFFC0399401A6528DA
:100F800004D3FFE703208DF81700C6E2E7E71CE073
:100F9000FFF7B2FC0390FFE743F60000C4F2020043
:100FA000006800F400310020B0EB514F0CD0FFE797
:100FB000FFF7A2FC0399401A652804D3FFE703203A
:100FC0008DF81700A9E2E7E7FFE7FFE7FFE70498DE
:100FD00000788007002840F19680FFE743F608007C
:100FE000C4F20200006810F00C0F13D0FFE743F6C4
:100FF0000800C4F20200006800F00C0008282CD1A0
:10100000FFE743F60400C4F2020000684002002833
:1010100023D4FFE743F60000C4F20200006800F0AA
:1010200002010020B0EB510F09D0FFE70498C0681F
:10103000012804D0FFE701208DF817006DE243F688
:101040000001C4F20201086820F0F800049A126955
:1010500040EAC2000860FFE754E00498C06870B33B
:10106000FFE70021C4F2472101200860FFF744FC9C
:101070000390FFE743F60000C4F20200006800F0AE
:1010800002010020B0EB510F0CD1FFE7FFF734FC59
:101090000399401A032804D3FFE703208DF81700B3
:1010A0003BE2E7E743F60001C4F20201086820F0E2
:1010B000F800049A126940EAC200086021E00021A9
:1010C000C4F2472100200860FFF716FC0390FFE7F9
:1010D00043F60000C4F20200006800F002010020A4
:1010E000B0EB510F0CD0FFE7FFF706FC0399401A55
:1010F000032804D3FFE703208DF817000DE2E7E78C
:10110000FFE7FFE7FFE704980078000700284BD5CA
:10111000FFE70498406918B3FFE740F68061C4F226
:10112000472101200860FFF7E7FB0390FFE743F644
:101130007400C4F20200006800F002010020B0EB6D
:10114000510F0CD1FFE7FFF7D7FB0399401A032893
:1011500004D3FFE703208DF81700DEE1E7E722E084
:1011600040F68061C4F2472100200860FFF7C4FB0D
:101170000390FFE743F67400C4F20200006800F039
:1011800002010020B0EB510F0CD0FFE7FFF7B4FBDA
:101190000399401A032804D3FFE703208DF81700B2
:1011A000BBE1E7E7FFE7FFE7049800784007002886
:1011B00040F1CE80FFE700208DF8070043F64000A5
:1011C000C4F202000068C000002815D4FFE7FFE762
:1011D0000020009043F64000C4F20200016841F094
:1011E00080510160006800F0805000900098FFE797
:1011F00001208DF80700FFE747F20000C4F200006D
:101200000068C005002822D4FFE747F20001C4F2BD
:101210000001086840F480700860FFF76DFB0390E0
:10122000FFE747F20000C4F200000068C005002894
:101230000CD4FFE7FFF760FB0399401A032804D39F
:10124000FFE703208DF8170067E1EAE7FFE7FFE714
:1012500004988068012809D1FFE743F67001C4F2C1
:101260000201086840F0010008601FE004988068EF
:1012700005280DD1FFE743F67001C4F202010868AA
:1012800040F004000860086840F0010008600CE0CD
:1012900043F67001C4F20201086820F00100086002
:1012A000086820F004000860FFE7FFE7FFE7049804
:1012B0008068F8B1FFE7FFF71FFB0390FFE743F6F5
:1012C0007000C4F20200006800F002010020B0EBE0
:1012D000510F0ED1FFE7FFF70FFB0399401A41F2C0
:1012E0008931884204D3FFE703208DF8170014E109
:1012F000E5E71EE0FFF700FB0390FFE743F6700011
:10130000C4F20200006800F002010020B0EB510FAF
:101310000ED0FFE7FFF7F0FA0399401A41F2893146
:10132000884204D3FFE703208DF81700F5E0E5E7D6
:10133000FFE79DF80700012809D1FFE743F64001C8
:10134000C4F20201086820F080500860FFE7FFE760
:1013500004988069002800F0DC80FFE743F608006D
:10136000C4F20200006800F00C00082800F085803C
:10137000FFE70498806902285CD1FFE76021C4F28E
:10138000472100200860FFF7B7FA0390FFE743F614
:101390000000C4F20200006800F000710020B0EB11
:1013A000516F0CD0FFE7FFF7A7FA0399401A032803
:1013B00004D3FFE703208DF81700AEE0E7E70499B8
:1013C000C869D1F820C04B6A8A6A40EA0C0040EA3A
:1013D0008310D2034FF6FF739A43A2F58032104375
:1013E000C96A40EA016043F60401C4F202010860E0
:1013F0006021C4F2472101200860FFF77DFA0390C5
:10140000FFE743F60000C4F20200006800F000713C
:101410000020B0EB516F0CD1FFE7FFF76DFA039995
:10142000401A032804D3FFE703208DF8170074E067
:10143000E7E721E06021C4F2472100200860FFF7C0
:101440005BFA0390FFE743F60000C4F20200006875
:1014500000F000710020B0EB516F0CD0FFE7FFF7F8
:101460004BFA0399401A032804D3FFE703208DF8B1
:10147000170052E0E7E7FFE74AE004988069012897
:1014800004D1FFE701208DF8170046E043F6040081
:10149000C4F202000068029004988069012831D0EB
:1014A000FFE7029800F480000499C969884229D1B5
:1014B000FFE7029800F03F000499096A884221D1B1
:1014C000FFE7029847F6C07108400499496AB0EBFB
:1014D000811F17D1FFE7029800F440300499896A10
:1014E000C9034FF6FF729143A1F58031884209D1BB
:1014F000FFE7029800F070600499C96AB0EB016FD1
:1015000004D0FFE701208DF8170006E0FFE7FFE7B2
:10151000FFE700208DF81700FFE79DF8170006B0E1
:1015200080BD000080B582B00190019800F008F9FC
:1015300002B080BDFFE7FEE780B594B000201390B5
:101540001290119010900F90FFE700200E9043F63C
:101550003000C4F20200016841F00101016000683E
:1015600000F001000E900E98FFE7FFE700200D90BD
:1015700043F63000C4F20200016841F080010160CE
:10158000006800F080000D900D98FFE7FFE7002055
:101590000C9043F63000C4F20200016841F04001B3
:1015A0000160006800F040000C900C98FFE7FFE736
:1015B00000200B9043F63000C4F20200016841F0B5
:1015C00002010160006800F002000B900B98FFE739
:1015D000FFE700200A9043F63000C4F202000168E1
:1015E00041F010010160006800F010000A900A98B4
:1015F000FFE7FFE70020099043F63000C4F2020045
:10160000016841F020010160006800F020000990AD
:101610000998FFE741F60000C4F2020001904FF480
:10162000FF71009101220592FFF74EF941F200008F
:10163000C4F2020003904FF400610291002206926E
:10164000FFF742F9059A41F20040C4F20200079008
:101650004FF480410491FFF737F9009B0198059AF8
:1016600006990F931092119112910FA90891FEF70C
:1016700007FF0698089904220F92109002201190FB
:1016800040F20040C4F20200FEF7FAFEDDF808C0A6
:101690000398059B069A0899CDF83CC010931192C7
:1016A0001292FEF7EDFEDDF810C0059B069A079832
:1016B0000899CDF83CC0109311921292FEF7E0FE0B
:1016C00014B080BDFFE7FEE7FFE7FEE788B00790B4
:1016D00006910592079800F0070004900498C0F165
:1016E0000700052803D3FFE70420019004E00498D5
:1016F000C0F107000190FFE70198039004980430BF
:10170000062803D8FFE70020009003E00498033880
:101710000090FFE70098029006980399012202FAD0
:1017200001F101390840029B984005999A40013A1D
:101730001140084308B07047704700007047000030
:1017400080B582B0009000980138B0F1807F03D35B
:10175000FFE70120019019E0009801384EF21401D2
:10176000CEF2000108604FF0FF300F2100F090F83A
:101770004EF21801CEF20001002008604EF2100275
:10178000CEF20002072111600190FFE7019802B03C
:1017900080BD000080B5FFF7B5F880BD80B594B07E
:1017A00008A83021FEF700FE002007900690059063
:1017B00004900390FFE70020029043F64000C4F23B
:1017C0000200016841F080510160006800F0805023
:1017D00002900298FFE7FFE70020019047F2000027
:1017E000C4F20000016841F440410160006800F467
:1017F000404001900198FFE7012008904FF48030AD
:10180000099002200E904FF480010F910F2110914A
:10181000D821119112900420139008A8FFF722FB01
:1018200018B1FFE7FEF728FEFFE7FFF715F918B13B
:10183000FFE7FEF721FEFFE70F2003900220049050
:10184000002005904FF4A05006904FF48050079070
:1018500003A80521FFF760F918B1FFE7FEF70CFEBA
:10186000FFE714B080BD00004EF68851CEF20001B3
:10187000086840F47000086070470000FFE7FEE76A
:101880004EF60C50CEF200000068C0F30220704704
:1018900082B08DF8070000919DF9070000280AD456
:1018A000FFE7009800019DF907104EF20042CEF2CA
:1018B000000288540BE0009800019DF8071001F029
:1018C0000F014EF61452CEF200028854FFE702B028
:1018D0007047000083B00290029800F0070000906B
:1018E0004EF60C51CEF200010868019001984FF6B7
:1018F000FF02104001900198009A40EA0220002265
:10190000C0F2FA52104301900198086003B070478A
:1019100080B582B000200190FFF702F8FFF73EFF8C
:10192000FFF70AFEFFE7FEF7E7FF40F28801C2F289
:1019300000010860FEF7E0FF009040F20040C4F2B2
:1019400002000421FEF794FF014640F27800C2F243
:10195000000001700078012826D1FFE740F28500E1
:10196000C2F200000078F8B9FFE7009840F27C016D
:10197000C2F200010968401A40F20801C2F20001F7
:101980000968884210D3FFE740F28401C2F20001E7
:101990000878B0FA80F040090870009840F27C01A5
:1019A000C2F200010860FFE740F27800C2F20000D6
:1019B000007840F28501C2F200010870009840F200
:1019C0008001C2F200010968401A40F20401C2F22B
:1019D00000010968884232D3FFE740F28400C2F276
:1019E0000000007890B1FFE741F20000C4F202006D
:1019F0004FF400610122FEF767FF41F20040C4F29C
:101A000002004FF48041FEF74BFF11E041F200402D
:101A1000C4F202004FF480410122FEF755FF41F26B
:101A20000000C4F202004FF40061FEF739FFFFE747
:101A3000009840F28001C2F200010860FFE772E7FF
:101A4000F1EE100A4FF6FF71C0F2C03120EA01003A
:101A500040F04070E1EE100A704700000000000006
:101A6000000001020304060708090000901A00089C
:101A7000000000201800000010020008A81A00084A
:101A80001800002078060000300200080000000066
:101A90000024F400320000001400000001000000E7
:081AA00010000000000000002E
:04000005080001AD41
:00000001FF
